:020000040800F2
:1000000000500020111B00083D170008431700088E
:10001000491700084F170008551700080000000096
:100020000000000000000000000000005B17000856
:100030006717000800000000731700087F1700080A
:10004000591B0008591B0008591B0008591B0008C0
:10005000591B0008591B0008591B0008591B0008B0
:10006000591B0008591B0008591B0008591B0008A0
:10007000591B0008591B0008591B0008591B000890
:10008000591B0008591B0008591B0008591B000880
:10009000591B0008591B0008591B0008591B000870
:1000A000591B0008591B0008591B0008591B000860
:1000B0008D170008591B0008591B0008591B000820
:1000C000591B0008591B0008591B0008591B000840
:1000D000591B0008591B0008591B0008A1170008EC
:1000E000591B0008591B0008591B0008000000009C
:1000F0000000000000000000000000000000000000
:0C01000000000000000000005FF808F1A3
:10010C0010B5054C237833B9044B13B10448AFF345
:10011C0000800123237010BD8C0000200000000023
:10012C00D44F000808B5034B1BB103490348AFF388
:10013C00008008BD0000000090000020D44F000893
:10014C0080B586B002AF0346FB71104AFB79137081
:10015C000F4B80221A7080233B7307F10C024FF671
:10016C00FF730093012342210A4802F02FFA642006
:10017C0001F050FD00F010F800220221102000F0D8
:10018C0017F800BF1037BD4680BD00BFB00000207F
:10019C00B1000020F400002080B400AF034B00221B
:1001AC001A7000BFBD4680BC704700BFA80000207D
:1001BC0080B582B000AF0346FB710B46BB71134692
:1001CC007B71BB79012B06D92B4B1B7843F00803B1
:1001DC00DAB2294B1A70294ABB791370FA79FB7978
:1001EC0040334021002000F04FF87B79002B09D0E0
:1001FC00BB79012B06D1204B1B7843F00403DAB2F8
:10020C001D4B1A70322001F005FD002000F022F980
:10021C00032000F00EF9052001F0FCFC032000F097
:10022C0008F9052001F0F6FC032000F002F9022089
:10023C0001F0F0FC022000F0FCF80F4B1B7843F0AF
:10024C002003DBB2184600F08FF80D4B04221A7015
:10025C0000F074F800F036F80A4B02221A70094BC1
:10026C001B7843F00403DBB2184600F07DF800BFA6
:10027C000837BD4680BD00BFA8000020AB000020A1
:10028C00A9000020AA00002080B485B000AFF8605F
:10029C00B9607A603B60FB68DAB2094B1A70BB68D4
:1002AC00DAB2074B5A707B68DAB2054B9A703B682E
:1002BC00DAB2034BDA7000BF1437BD4680BC70470E
:1002CC00AC00002080B500AF012000F04DF80220FA
:1002DC0001F0A0FC00BF80BD80B584B000AF034628
:1002EC000A46FB711346BB710423FB60BB79FA68A9
:1002FC009A4203D8FB68DBB2013BBB710D4B1B78F8
:10030C00BA799A4203D30B4B1B78013BBB71BB7977
:10031C00094AD25CFB791344DBB25BB263F07F0316
:10032C005BB2DBB2184600F01FF800BF1037BD46B9
:10033C0080BD00BFAB000020AC00002080B500AF3A
:10034C00084B1B7843F00403DAB2064B1A70054BCA
:10035C001B7843F00803DBB2184600F005F800BF29
:10036C0080BD00BFA900002080B582B000AF03465D
:10037C00FB71FB790021184600F013F800BF083719
:10038C00BD4680BD80B582B000AF0346FB71FB79E2
:10039C004021184600F005F8012318460837BD46E1
:1003AC0080BD80B584B000AF03460A46FB7113468E
:1003BC00BB71FB791B09FB73FB7903F00F03BB7358
:1003CC00FA7BBB791343DBB2184600F032F8BA7BE8
:1003DC00BB791343DBB2184600F02BF800BF103783
:1003EC00BD4680BD80B582B000AF0346FB71FB7982
:1003FC0023F01003DBB2184600F02CF8012001F0BA
:10040C0009FCFB7943F01003DBB2184600F022F82C
:10041C00012001F0FFFBFB7923F01003DBB218463F
:10042C0000F018F8012001F0F5FB00BF0837BD46BD
:10043C0080BD80B582B000AF0346FB71FB791846D6
:10044C0000F008F8FB791846FFF7CCFF00BF08371F
:10045C00BD4680BD80B586B002AF0346FB710B4B29
:10046C001A78FB791343DBB23B73094B1B7899B2B7
:10047C0007F10C024FF6FF7300930123054802F0BD
:10048C00A5F800BF1037BD4680BD00BFB1000020ED
:10049C00B0000020F400002080B500AF4220FFF730
:1004AC004FFE00BF80BD80B582B000AF0346FB712C
:1004BC00FB791846FFF766FF00BF0837BD4680BDC5
:1004CC0080B582B000AF786006E07B685A1C7A6019
:1004DC001B781846FFF7E7FF7B681B78002BF4D1DD
:1004EC0000BF00BF0837BD4680BD80B582B000AFED
:1004FC00786039603B68DBB27A68D2B21146184634
:10050C00FFF7EAFE00BF0837BD4680BD80B58CB052
:10051C0000AFF860B9607A603B607B68012B07D153
:10052C0007F12003FA682849184604F0D3F814E0C0
:10053C007B68022B07D107F12003FA682349184680
:10054C0004F0C8F809E07B68032B06D107F12003FF
:10055C00FA681F49184604F0BDF83B68012B07D117
:10056C0007F11003BA681B49184604F0B3F814E0FD
:10057C003B68022B07D107F11003BA6816491846DD
:10058C0004F0A8F809E03B68032B06D107F110032F
:10059C00BA681249184604F09DF800210020FFF7B4
:1005AC00A4FF07F120031846FFF78AFF0021012062
:1005BC00FFF79BFF07F110031846FFF781FF00BF01
:1005CC003037BD4680BD00BF0850000818500008E9
:1005DC0028500008385000084850000858500008AF
:1005EC0080B58AB000AF786039607B680E2B06D17D
:1005FC0007F118031549184604F06CF808E07B68FD
:10060C000F2B05D107F118031149184604F062F8B5
:10061C0007F108033A680F49184604F05BF800210B
:10062C000020FFF762FF07F118031846FFF748FF99
:10063C0000210120FFF759FF07F108031846FFF7C7
:10064C003FFF00BF2837BD4680BD00BF6850000883
:10065C00785000088850000880B400AF194B1B6814
:10066C00B3F57A7F03DB174B40F2E7321A60154B78
:10067C001B68002B02DC134B01221A60124B1B6807
:10068C00B3F57A7F03DB104B40F2E7321A600E4B66
:10069C001B68002B02DC0C4B01221A600B4B1B68F5
:1006AC00B3F57A7F03DB094B40F2E7321A60074B54
:1006BC001B68002B02DC054B01221A6000BFBD46F3
:1006CC0080BC7047DC000020E0000020E40000202B
:1006DC0080B500AF094B1B680133084A1360074B08
:1006EC001B68074A1360054B1A68064B1B681344BA
:1006FC00054A1360FFF7B0FF00BF80BDE00000208B
:10070C00C8000020E4000020DC00002080B500AF11
:10071C00094B1B68013B084A1360074B1B68074ACF
:10072C001360054B1A68064B1B681344054A13608B
:10073C00FFF792FF00BF80BDE0000020C800002042
:10074C00E4000020DC00002080B500AF094B1B68E2
:10075C000133084A1360074B1B68074A1360074BA9
:10076C001A68044B1B681344054A1360FFF774FFA7
:10077C0000BF80BDE4000020C8000020E000002085
:10078C00DC00002080B500AF094B1B68013B084A18
:10079C001360074B1B68074A1360074B1A68044B1E
:1007AC001B681344054A1360FFF756FF00BF80BD5A
:1007BC00E4000020C8000020E0000020DC00002045
:1007CC0080B500AF964B1B680D2B40F0CA80954B43
:1007DC001B68032B00F2B48001A252F823F000BF77
:1007EC00FD0700080B08000899080008FB08000822
:1007FC008C4B01221A60012000F080FDA7E08A4B8F
:10080C0001221A60894B1B68012B40F09B80884B9E
:10081C001A68884B1B689A4216DD834B02225A6079
:10082C00012000F033FB00222021834801F058FD09
:10083C007F4B1B68814A13607D4B1A68804B1B6889
:10084C00D31A7E4A53600DE0774B03225A60022084
:10085C0000F01CFB764B1B68784A1360744B1B68CA
:10086C00764A5360724B1B68013B714A1360704BA4
:10087C001B68002B06D1734B1B686D4A1360694BC8
:10088C0002221A60642000F039FD5BE0664B022204
:10089C001A60654B01225A60644B1B68012B53D1C3
:1008AC00032000F0F3FA00222021634801F018FD28
:1008BC00654B1B68614A1360634B1A68604B1B687D
:1008CC0013445E4A5360604B1B68013B5E4A1360E5
:1008DC005D4B1B68002B06D15C4B1B685A4A13609E
:1008EC00504B03221A60642000F008FD2CE04E4BA4
:1008FC0003221A604C4B01225A604C4B1B68012B93
:10090C0024D1042000F0C2FA4D4B1B684B4A1360F3
:10091C004B4B1B68494A5360494B1B68013B484A87
:10092C001360474B1B68002B06D1424B1B68444A93
:10093C0013603C4B01221A60642000F0DFFC05E0E0
:10094C0000BF04E000BF02E000BF00E000BF3B4B73
:10095C0018683A4B5968344B1A68334B5B68FFF78D
:10096C00D5FD2F4B1B680E2B40F08580042132489F
:10097C0001F0CEFC364B0E221A60344B1B68354A04
:10098C001360052000F082FA334B1B68082B42D809
:10099C0001A252F823F000BFC9090008230A00087D
:1009AC00230A0008230A0008CF090008F3090008ED
:1009BC00DD090008010A0008170A0008FFF74CFEC1
:1009CC0051E0254B06221A60012000F0ABFC4AE0F6
:1009DC00224B1B68012B20D1FFF77AFE4FF4967047
:1009EC0000F0A0FC19E01C4B07221A60012000F05B
:1009FC00ADFC38E01A4B1B68012B33D1FFF786FE98
:100A0C004FF4967000F0A2FC2CE0054B0D221A60FE
:100A1C0000F0C4F827E000BF25E000BF23E000BFD2
:100A2C00CC000020D0000020BC000020E001002001
:100A3C00E8000020E4000020000C0140B40000207D
:100A4C00F0000020DC000020EC000020E000002082
:100A5C00C4000020C8000020D4000020E8010020C1
:100A6C00F001002000BF384B1B68384A1268114651
:100A7C001846FFF7B5FD364B1B680F2B61D10421CF
:100A8C00344801F045FC304B0F221A60324B1B6886
:100A9C002E4A1360062000F0F9F9304B1B68082B26
:100AAC0041D801A252F823F0D90A0008330B0008F0
:100ABC00330B0008330B0008DF0A0008030B000897
:100ACC00ED0A0008110B0008270B0008FFF7C4FD06
:100ADC002EE0224B06221A60012000F04BFC27E08E
:100AEC001F4B1B68012B20D1FFF72EFE4FF4967085
:100AFC0000F040FC19E0194B07221A60012000F0AD
:100B0C004DFC15E0174B1B68012B10D1FFF73AFE7B
:100B1C004FF4967000F042FC09E00D4B0D221A6068
:100B2C0000F03CF804E000BF02E000BF00E000BFB2
:100B3C00054B1B68054A126811461846FFF750FD15
:100B4C0000E000BF80BD00BFC4000020C800002032
:100B5C00CC000020000C0140E4000020D800002054
:100B6C00F80100200002002080B400AF084B1222D4
:100B7C001A60084B07221A60054B1A68054B1B6854
:100B8C001344054A136000BFBD4680BC704700BFCC
:100B9C00E0000020E4000020DC00002080B400AF66
:100BAC000D4B0D221A600D4B00221A600C4B0022CB
:100BBC001A600C4B00221A600B4B1B680B4A13601B
:100BCC000B4B1B680B4A13600B4B1B680B4A1360D7
:100BDC0000BFBD4680BC7047CC000020D000002078
:100BEC00D4000020D8000020DC000020E800002009
:100BFC00E0000020EC000020E4000020F0000020C9
:100C0C0080B500AF00221021024801F069FB00BF43
:100C1C0080BD00BF0010014080B500AF0122102143
:100C2C00024801F05DFB00BF80BD00BF0010014019
:100C3C0080B500AF01222021024801F051FB00BF1A
:100C4C0080BD00BF0010014080B500AF002208211C
:100C5C00024801F045FB00BF80BD00BF0010014001
:100C6C0080B500AF01220821024801F039FB00BF1A
:100C7C0080BD00BF0010014080B582B000AF0346BC
:100C8C00FB71FB791A464021034801F029FB00BF98
:100C9C000837BD4680BD00BF0010014080B483B052
:100CAC0000AF786039607A683B6822FA03F303F08E
:100CBC0001037B607B68DBB218460C37BD4680BCF9
:100CCC007047000080B582B000AF104B1B683B60D2
:100CDC00FFF7A2FF0023FB710FE0FFF7C1FFFB79C9
:100CEC0019463868FFF7DAFF03461846FFF7C4FFCA
:100CFC00FFF7AAFFFB790133FB71FB79132BECD9BE
:100D0C00FFF77EFF00BF0837BD4680BD0000002006
:100D1C0080B582B000AF104B5B683B60FFF77CFF87
:100D2C000023FB710FE0FFF79BFFFB791946386836
:100D3C00FFF7B4FF03461846FFF79EFFFFF784FF4B
:100D4C00FB790133FB71FB79132BECD9FFF758FFBF
:100D5C0000BF0837BD4680BD0000002080B582B0C2
:100D6C0000AF104B9B683B60FFF756FF0023FB71F5
:100D7C000FE0FFF775FFFB7919463868FFF78EFF18
:100D8C0003461846FFF778FFFFF75EFFFB79013348
:100D9C00FB71FB79132BECD9FFF732FF00BF08373F
:100DAC00BD4680BD0000002080B582B000AF104B66
:100DBC00DB683B60FFF730FF0023FB710FE0FFF7B0
:100DCC004FFFFB7919463868FFF768FF0346184652
:100DDC00FFF752FFFFF738FFFB790133FB71FB790B
:100DEC00132BECD9FFF70CFF00BF0837BD4680BDB5
:100DFC000000002080B582B000AF104B1B693B6037
:100E0C00FFF70AFF0023FB710FE0FFF729FFFB79C7
:100E1C0019463868FFF742FF03461846FFF72CFFC8
:100E2C00FFF712FFFB790133FB71FB79132BECD924
:100E3C00FFF7E6FE00BF0837BD4680BD000000206E
:100E4C0080B582B000AF104B5B693B60FFF7E4FEEE
:100E5C000023FB710FE0FFF703FFFB79194638689D
:100E6C00FFF71CFF03461846FFF706FFFFF7ECFEE3
:100E7C00FB790133FB71FB79132BECD9FFF7C0FE27
:100E8C0000BF0837BD4680BD0000002080B582B091
:100E9C0000AF78607B68013B052B21D801A252F88A
:100EAC0023F000BFC90E0008CF0E0008D50E0008B5
:100EBC00DB0E0008E10E0008E70E0008FFF702FF4A
:100ECC000FE0FFF725FF0CE0FFF748FF09E0FFF705
:100EDC006BFF06E0FFF78EFF03E0FFF7B1FF00E0CA
:100EEC0000BF00BF0837BD4680BD00BF80B582B0D3
:100EFC0000AF78607B681B68144A934222D14FF490
:100F0C00FA7301221249134802F0C7FE124B1B78E8
:100F1C001A460F4B1978114B99540F4B1B78013310
:100F2C00DAB20D4B1A700C4B1B78322B02D10A4BD8
:100F3C0000221A700A4B01221A700122044905483A
:100F4C0002F03DFF00BF0837BD4680BD00480040A1
:100F5C0028020020900100205E0200202C020020BC
:100F6C005F02002080B500AF00F0F2FD00F042F807
:100F7C0000F020F900F0A8F800F078F800F0F0F894
:100F8C00164802F093FA01221549164802F017FF91
:100F9C0000220421144801F0A3F9FFF749FEFFF7E2
:100FAC007BFAFFF7E1FDFFF7F9FD012000F092F964
:100FBC000E4B1B68012B02D1642000F08BF9FFF75C
:100FCC00FFFB0B4B1B78012B04D100F0A7FC084B4B
:100FDC0000221A7000F02CFDEAE700BF4801002047
:100FEC00280200209001002000140140D8010020AC
:100FFC005F02002080B590B000AF07F118032822E3
:10100C000021184603F05EFB3B1D00221A605A605B
:10101C009A60DA601A610223BB610123BB62102360
:10102C00FB6200237B6307F11803184601F0D4FD23
:10103C000346002B01D000F047F90F237B600023FF
:10104C00BB600023FB6000233B6100237B613B1DE5
:10105C000021184602F042F80346002B01D000F0A4
:10106C0033F900BF4037BD4680BD000080B500AFEE
:10107C00124B134A1A60114B124A5A600F4B002242
:10108C009A600E4B0022DA600C4B4FF480421A61CE
:10109C000A4B00225A61094B00229A61074B00222D
:1010AC00DA61064B00221A62044801F04BF9034640
:1010BC00002B01D000F008F900BF80BDF400002027
:1010CC0000540040A086010080B586B000AF07F147
:1010DC00080300221A605A609A60DA603B460022CC
:1010EC001A605A601D4B4FF080421A601B4B41F640
:1010FC003F725A60194B00229A60184B0922DA6031
:10110C00164B00221A61154B00229A61134802F00B
:10111C007DF90346002B01D000F0D6F84FF4805334
:10112C00BB6007F1080319460C4802F019FB034693
:10113C00002B01D000F0C8F800233B6000237B603B
:10114C003B461946054802F0EBFC0346002B01D048
:10115C0000F0BAF800BF1837BD4680BD480100202A
:10116C0080B500AF114B124A1A60104B4FF4165257
:10117C005A600E4B00229A600C4B0022DA600B4B2B
:10118C0000221A61094B0C225A61084B00229A6109
:10119C00064B0022DA61054802F032FD0346002BB3
:1011AC0001D000F091F800BF80BD00BF900100207D
:1011BC000048004080B588B000AF07F11003002252
:1011CC001A605A609A60DA60364B9B69354A43F074
:1011DC0010039361334B9B6903F01003FB60FB68B6
:1011EC00304B9B692F4A43F0080393612D4B9B694D
:1011FC0003F00803BB60BB682A4B9B69294A43F088
:10120C0004039361274B9B6903F004037B607B68A9
:10121C00244B9B69234A43F020039361214B9B6928
:10122C0003F020033B603B68002278211E4801F04C
:10123C0057F8002224211D4801F052F80022042105
:10124C001B4801F04DF878233B6101237B6100239F
:10125C00BB610223FB6107F110031946124800F031
:10126C00BBFE24233B6101237B610023BB61022372
:10127C00FB6107F1100319460C4800F0ADFE042386
:10128C003B6101237B610023BB610223FB6107F1FE
:10129C0010031946064800F09FFE00BF2037BD46DC
:1012AC0080BD00BF0010024000100140000C014046
:1012BC000014014080B582B000AF786000F082F875
:1012CC0000BF0837BD4680BD80B400AF72B600BF0A
:1012DC00FEE7000080B483B000AF7860054A7B68FD
:1012EC001360054B00221A6000BF0C37BD4680BC52
:1012FC00704700BFD4010020D801002080B483B017
:10130C0000AF7860054A7B681360054B00221A60B9
:10131C0000BF0C37BD4680BC704700BFDC0100200D
:10132C00E001002080B483B000AF7860054A7B6890
:10133C001360054B00221A6000BF0C37BD4680BC01
:10134C00704700BFE4010020E801002080B483B0A6
:10135C0000AF7860054A7B681360054B00221A6069
:10136C0000BF0C37BD4680BC704700BFEC010020AD
:10137C00F001002080B483B000AF7860054A7B6830
:10138C001360054B00221A6000BF0C37BD4680BCB1
:10139C00704700BFF4010020F801002080B483B036
:1013AC0000AF7860054A7B681360054B00221A6019
:1013BC0000BF0C37BD4680BC704700BFFC0100204D
:1013CC000002002080B400AF514B1B68002B0BDDDA
:1013DC004F4B1B68013B4E4A13604D4B1B68002B57
:1013EC0002D14C4B01221A604B4B1B68002B0BDDBE
:1013FC00494B1B68013B484A1360474B1B68002B49
:10140C0002D1464B01221A60454B1B68002B0BDDA9
:10141C00434B1B68013B424A1360414B1B68002B3A
:10142C0002D1404B01221A603F4B1B68002B0BDD95
:10143C003D4B1B68013B3C4A13603B4B1B68002B2C
:10144C0002D13A4B01221A60394B1B68002B0BDD81
:10145C00374B1B68013B364A1360354B1B68002B1E
:10146C0002D1344B01221A60334B1B68002B0BDD6D
:10147C00314B1B68013B304A13602F4B1B68002B10
:10148C0002D12E4B01221A602D4B1B68002B0BDD59
:10149C002B4B1B68013B2A4A1360294B1B68002B02
:1014AC0002D1284B01221A60274B1B68002B0BDD45
:1014BC00254B1B68013B244A1360234B1B68002BF4
:1014CC0002D1224B01221A60214B1B68002B0BDD31
:1014DC001F4B1B68013B1E4A13601D4B1B68002BE6
:1014EC0002D11C4B01221A601B4B1B68002B0BDD1D
:1014FC00194B1B68013B184A1360174B1B68002BD8
:10150C0002D1164B01221A6000BFBD4680BC704749
:10151C00D4010020D8010020DC010020E0010020D3
:10152C00E4010020E8010020EC010020F001002083
:10153C00F4010020F8010020FC0100200002002032
:10154C0004020020080200200C02002010020020DF
:10155C0014020020180200201C020020200200208F
:10156C0080B485B000AF154B9B69144A43F001035E
:10157C009361124B9B6903F00103BB60BB680F4B7B
:10158C00DB690E4A43F08053D3610C4BDB6903F0EB
:10159C0080537B607B680A4B5B68FB60FB6823F0C5
:1015AC00E063FB60FB6843F00073FB60044AFB687C
:1015BC00536000BF1437BD4680BC7047001002401A
:1015CC000000014080B588B000AF786007F11003CF
:1015DC0000221A605A609A60DA607B681B68154AB0
:1015EC00934223D1144B9B69134A43F00803936134
:1015FC00114B9B6903F00803FB60FB68C0233B6144
:10160C0012237B610323FB6107F1100319460B487E
:10161C0000F0E2FC084BDB69074A43F40013D3618A
:10162C00054BDB6903F40013BB60BB6800BF2037BC
:10163C00BD4680BD0054004000100240000C01402B
:10164C0080B584B000AF78607B681B68B3F1804FC5
:10165C0013D10C4BDB690B4A43F00103D361094BEB
:10166C00DB6903F00103FB60FB68002200211C20F6
:10167C0000F0CBFB1C2000F0E4FB00BF1037BD4694
:10168C0080BD00BF0010024080B588B000AF78600C
:10169C0007F1100300221A605A609A60DA607B68C6
:1016AC001B68204A934239D11F4BDB691E4A43F415
:1016BC008023D3611C4BDB6903F48023FB60FB6844
:1016CC00194B9B69184A43F008039361164B9B69AD
:1016DC0003F00803BB60BB684FF480633B610223DB
:1016EC007B610323FB6107F1100319460F4800F0DF
:1016FC0073FC4FF400633B6100237B610023BB61EF
:10170C0007F110031946094800F066FC002200217D
:10171C00272000F07AFB272000F093FB00BF203736
:10172C00BD4680BD0048004000100240000C014046
:10173C0080B400AFFEE780B400AFFEE780B400AF2A
:10174C00FEE780B400AFFEE780B400AFFEE780B4E4
:10175C0000AF00BFBD4680BC704780B400AF00BF77
:10176C00BD4680BC704780B400AF00BFBD4680BC96
:10177C00704780B500AF00F031FA00BF80BD0000AB
:10178C0080B500AF024801F0E3FE00BF80BD00BF92
:10179C004801002080B500AF024802F041FB00BFB9
:1017AC0080BD00BF9001002080B586B000AF78608E
:1017BC00144A154BD31A7B617B693B61134B1B6835
:1017CC00002B02D1114B124A1A60104B1A687B681D
:1017DC0013443A699A4207D202F04AFF03460C229C
:1017EC001A604FF0FF3309E0084B1B68FB60074B96
:1017FC001A687B681344054A1360FB68184618374F
:10180C00BD4680BD005000200004000024020020D2
:10181C007802002080B400AF00BFBD4680BC70478A
:10182C0080B485B000AF78600023FB607B681B78C8
:10183C00522B02D10123FB6001E00023FB60FB680B
:10184C0018461437BD4680BC704780B485B000AFD5
:10185C0078600023FB607B681B784F2B02D101233F
:10186C00FB6001E00023FB60FB6818461437BD46A3
:10187C0080BC704780B485B000AF78600023FB60FB
:10188C007B681B78312B02D10123FB6001E0002324
:10189C00FB60FB6818461437BD4680BC704780B4AB
:1018AC0085B000AF78600023FB607B681B78322B1F
:1018BC0002D10123FB6001E00023FB60FB681846AA
:1018CC001437BD4680BC704780B485B000AF7860DB
:1018DC000023FB607B681B782B2B02D10123FB6060
:1018EC0001E00023FB60FB6818461437BD4680BC42
:1018FC00704780B485B000AF78600023FB607B68D4
:10190C001B782D2B02D10123FB6001E00023FB602F
:10191C00FB6818461437BD4680BC704780B500AFD5
:10192C003E4B1B780B2B2FD00B2B70DC092B02D0D2
:10193C000A2B08D06BE03A4B1B78212B69D1374B23
:10194C000A221A7065E0364B1B78212B11D0344BD0
:10195C001B78232B0DD0334B1B781A46304B197840
:10196C00314B99542F4B1B780133DAB22D4B1A7033
:10197C0051E02B4B1B78232B4DD1284B0B221A708B
:10198C00284B00221A7046E02748FFF749FF034610
:10199C00012B03D1254B0C221A7034E02248FFF79F
:1019AC0069FF0346012B03D1204B0E221A702AE04B
:1019BC001D48FFF774FF0346012B03D11B4B0F226D
:1019CC001A7020E01848FFF77FFF0346012B03D164
:1019DC00164B06221A7016E01348FFF78AFF0346CF
:1019EC00012B03D1114B07221A700CE00E48FFF7A4
:1019FC002CFF0346012B03D10C4B0D221A7002E075
:101A0C000A4B0E221A70054B09221A7004E000BF13
:101A1C0002E000BF00E000BF00BF80BD1C00002042
:101A2C002802002063020020600200201D0000201C
:101A3C0080B400AF2F4B1B78063B092B4FD801A26B
:101A4C0052F823F0911A0008AF1A0008EB1A00089C
:101A5C00EB1A0008EB1A0008EB1A0008791A0008B8
:101A6C00CD1A0008811A0008891A0008224B0D2291
:101A7C001A603BE0204B0E221A6037E01E4B0F22FF
:101A8C001A6033E01C4B1B680E2B02D11B4B04223B
:101A9C001A60194B1B680F2B23D1194B04221A60A7
:101AAC001FE0154B1B680E2B02D1144B05221A603C
:101ABC00114B1B680F2B16D1114B05221A6012E02B
:101ACC000D4B1B680E2B02D10C4B08221A600A4BD3
:101ADC001B680F2B09D10A4B08221A6005E000BFC6
:101AEC0004E000BF02E000BF00E000BF00BFBD4645
:101AFC0080BC70471D000020CC000020D4000020CA
:101B0C00D80000200C480D490D4A002302E0D4589F
:101B1C00C4500433C4188C42F9D30A4A0A4C00232B
:101B2C0001E013600432A242FBD3FFF773FE02F014
:101B3C00A5FDFFF717FA7047000000208C0000206D
:101B4C00FC5000088C00002078020020FEE700000A
:101B5C0080B500AF084B1B68074A43F010031360B5
:101B6C00032000F047F90F2000F008F8FFF7F8FC0D
:101B7C000023184680BD00BF0020024080B582B013
:101B8C0000AF7860124B1A68124B1B7819464FF451
:101B9C007A73B3FBF1F3B2FBF3F3184600F05FF981
:101BAC000346002B01D001230EE07B680F2B0AD8D3
:101BBC00002279684FF0FF3000F027F9064A7B6865
:101BCC001360002300E0012318460837BD4680BD92
:101BDC0018000020240000202000002080B400AF5A
:101BEC00054B1B781A46054B1B681344034A1360BC
:101BFC0000BFBD4680BC704724000020640200205A
:101C0C0080B400AF024B1B681846BD4680BC7047C1
:101C1C006402002080B584B000AF7860FFF7F0FF5D
:101C2C00B8607B68FB60FB68B3F1FF3F05D00A4BE3
:101C3C001B781A46FB681344FB6000BFFFF7E0FFFC
:101C4C000246BB68D31AFA689A42F7D800BF00BFA5
:101C5C001037BD4680BD00BF2400002080B485B085
:101C6C0000AF78607B6803F00703FB600C4BDB680C
:101C7C00BB60BA684FF6FF031340BB60FB681A02E7
:101C8C00BB68134343F0BF6343F40033BB60044AA7
:101C9C00BB68D36000BF1437BD4680BC704700BF23
:101CAC0000ED00E080B400AF044BDB681B0A03F0CE
:101CBC0007031846BD4680BC704700BF00ED00E02E
:101CCC0080B483B000AF0346FB7197F90730002B4B
:101CDC000BDBFB7903F01F02064997F907305B0910
:101CEC00012000FA02F241F8232000BF0C37BD4658
:101CFC0080BC704700E100E080B483B000AF0346C5
:101D0C003960FB7197F90730002B0ADB3B68DAB2BC
:101D1C000C4997F907301201D2B20B4483F8002317
:101D2C000AE03B68DAB20849FB7903F00F03043B85
:101D3C001201D2B20B441A7600BF0C37BD4680BCE0
:101D4C00704700BF00E100E000ED00E080B489B016
:101D5C0000AFF860B9607A60FB6803F00703FB61C1
:101D6C00FB69C3F10703042B28BF0423BB61FB6988
:101D7C000433062B02D9FB69033B00E000237B6193
:101D8C004FF0FF32BB6902FA03F3DA43BB681A4027
:101D9C007B699A404FF0FF317B6901FA03F3D94319
:101DAC007B680B40134318462437BD4680BC7047F4
:101DBC0080B582B000AF78607B68013BB3F1807F67
:101DCC0001D301230FE00A4A7B68013B53600F21CA
:101DDC004FF0FF30FFF790FF054B00229A60044B49
:101DEC0007221A60002318460837BD4680BD00BF85
:101DFC0010E000E080B582B000AF78607868FFF743
:101E0C002DFF00BF0837BD4680BD80B586B000AF42
:101E1C000346B9607A60FB7300237B61FFF742FFD6
:101E2C0078617A68B9687869FFF790FF024697F98C
:101E3C000F3011461846FFF75FFF00BF1837BD463D
:101E4C0080BD80B582B000AF0346FB7197F90730B7
:101E5C001846FFF735FF00BF0837BD4680BD80B57B
:101E6C0082B000AF78607868FFF7A2FF034618468F
:101E7C000837BD4680BD80B485B000AF78600023C4
:101E8C00FB737B6893F82130022B08D07B6804220B
:101E9C009A637B68002283F82020012320E07B6872
:101EAC001B681A687B681B6822F00E021A607B683C
:101EBC001B681A687B681B6822F001021A607B6839
:101ECC001A6C7B68DB6B012101FA02F25A607B68A9
:101EDC00012283F821207B68002283F82020FB7BE1
:101EEC0018461437BD4680BC7047000080B584B0DE
:101EFC0000AF78600023FB737B6893F82130022BD2
:101F0C0005D07B6804229A630123FB7351E07B6844
:101F1C001B681A687B681B6822F00E021A607B68CB
:101F2C001B681A687B681B6822F001021A607B68C8
:101F3C001B68224A934229D07B681B68204A934233
:101F4C0022D07B681B681F4A93421AD07B681B689F
:101F5C001D4A934212D07B681B681C4A93420AD0DC
:101F6C007B681B681A4A934202D14FF480130EE02F
:101F7C004FF080730BE04FF4803308E04FF4805344
:101F8C0005E04FF4807302E0102300E00123114AB6
:101F9C0053607B68012283F821207B68002283F840
:101FAC0020207B685B6B002B03D07B685B6B7868B5
:101FBC009847FB7B18461037BD4680BD0800024091
:101FCC001C00024030000240440002405800024015
:101FDC006C0002400000024080B48BB000AF78600F
:101FEC00396000237B6200233B6269E101227B6A3A
:101FFC0002FA03F3FB613B681B68FA691340BB618F
:10200C00BA69FB699A4240F058813B685B689A4A0E
:10201C0093425ED0984A934275D8984A934258D0CE
:10202C00964A93426FD8964A934252D0944A93421E
:10203C0069D8944A93424CD0924A934263D8924ABC
:10204C00934246D0904A93425DD8122B2AD8122B39
:10205C0059D801A252F823F0DF200008B92000085B
:10206C00CB2000080D2100081321000813210008C3
:10207C001321000813210008132100081321000864
:10208C001321000813210008132100081321000854
:10209C00132100081321000813210008C120000897
:1020AC00D5200008794A934213D02CE03B68DB68BA
:1020BC003B6229E03B68DB6804333B6224E03B680D
:1020CC00DB6808333B621FE03B68DB680C333B6228
:1020DC001AE03B689B68002B02D104233B6213E09F
:1020EC003B689B68012B05D108233B627B68FA692E
:1020FC001A6109E008233B627B68FA695A6103E0C4
:10210C0000233B6200E000BFBB69FF2B01D87B685A
:10211C0001E07B6804337B61BB69FF2B02D87B6ACF
:10212C009B0002E07B6A083B9B003B617B691A6861
:10213C000F213B6901FA03F3DB431A40396A3B690F
:10214C0001FA03F31A437B691A603B685B6803F07E
:10215C008053002B00F0B1804D4B9B694C4A43F0EF
:10216C00010393614A4B9B6903F00103BB60BB689D
:10217C00484A7B6A9B08023352F82330FB607B6A27
:10218C0003F003039B000F2202FA03F3DB43FA680C
:10219C001340FB607B68404A934213D07B683F4AF4
:1021AC0093420DD07B683E4A934207D07B683D4AF0
:1021BC00934201D1032306E0042304E0022302E04E
:1021CC00012300E000237A6A02F00302920093409C
:1021DC00FA681343FB602F497B6A9B080233FA6849
:1021EC0041F823203B685B6803F48033002B06D056
:1021FC002D4B1A682C49BB6913430B6006E02A4B24
:10220C001A68BB69DB43284913400B603B685B6869
:10221C0003F40033002B06D0234B5A682249BB69C8
:10222C0013434B6006E0204B5A68BB69DB431E49E5
:10223C0013404B603B685B6803F48013002B06D0A3
:10224C00194B9A681849BB6913438B6006E0164B0F
:10225C009A68BB69DB43144913408B603B685B682D
:10226C0003F40013002B21D00F4BDA680E49BB6925
:10227C001343CB6021E000BF00003210000031108E
:10228C00000022100000211000001210000011109C
:10229C00001002400000014000080140000C014009
:1022AC000010014000140140000401400B4BDA689F
:1022BC00BB69DB4309491340CB607B6A01337B620A
:1022CC003B681A687B6A22FA03F3002B7FF48EAE0C
:1022DC0000BF00BF2C37BD4680BC704700040140D6
:1022EC0080B483B000AF78600B467B8013467B7064
:1022FC007B78002B03D07A887B681A6103E07B889B
:10230C001A047B681A6100BF0C37BD4680BC70474D
:10231C0080B485B000AF78600B467B807B68DB684F
:10232C00FB607A88FB6813401A04FB68D9437B88EE
:10233C000B401A437B681A6100BF1437BD4680BC42
:10234C007047000080B584B000AF78607B68002BCC
:10235C0001D101232BE17B6893F83D30DBB2002BDC
:10236C0006D17B68002283F83C207868FFF72AF9B5
:10237C007B68242283F83D207B681B681A687B6885
:10238C001B6822F001021A607B681B681A687B6864
:10239C001B6842F400421A607B681B681A687B68F1
:1023AC001B6822F400421A6000F0EAFFF8607B68B8
:1023BC005B68814A934207D8FB68804A934294BF7A
:1023CC0001230023DBB206E0FB687D4A934294BFF5
:1023DC0001230023DBB2002B01D00123E7E0FB68D3
:1023EC00784AA2FB03239B0CBB607B681B685B6871
:1023FC0023F03F017B681B68BA680A435A607B680C
:10240C001B681B6A23F03F017B685B686A4A934236
:10241C0002D8BB68013309E0BB684FF4967202FB2B
:10242C0003F3694AA2FB03239B0901337A68126800
:10243C000B4313627B681B68DB6923F44F4222F069
:10244C00FF027B685B685C498B4219D8FB68591E9C
:10245C007B685B685B00B1FBF3F3591C40F6FC73C3
:10246C000B40002B0AD0FB68591E7B685B685B0035
:10247C00B1FBF3F30133C3F30B0351E004234FE03F
:10248C007B689B68002B11D1FB68581E7B685968D0
:10249C000B465B000B44B0FBF3F30133C3F30B03AC
:1024AC00002B0CBF01230023DBB212E0FB68581E8B
:1024BC007B6859680B469B000B4499000B44B0FB9E
:1024CC00F3F30133C3F30B03002B0CBF01230023E5
:1024DC00DBB2002B01D0012322E07B689B68002B30
:1024EC000ED1FB68581E7B6859680B465B000B4489
:1024FC00B0FBF3F30133C3F30B0343F400430FE0DE
:10250C00FB68581E7B6859680B469B000B4499006E
:10251C000B44B0FBF3F30133C3F30B0343F440431D
:10252C00796809681343CB617B681B681B6823F0CF
:10253C00C0017B68DA697B681B6A1A437B681B687D
:10254C000A431A607B681B689B6823F4034323F0DF
:10255C00FF037A6811697A68D26811437A68126845
:10256C000B4393607B681B68DB6823F0FF017B687F
:10257C005A697B689B691A437B681B680A43DA605B
:10258C007B681B681A687B681B6842F001021A6042
:10259C007B6800221A647B68202283F83D207B68CC
:1025AC0000221A637B68002283F83E200023184621
:1025BC001037BD4680BD00BFA08601007F841E0081
:1025CC00FF083D0083DE1B43D34D621080B588B0FD
:1025DC0002AFF8607A601A460B467B8113463B814A
:1025EC00FFF70EFB7861FB6893F83D30DBB2202BD4
:1025FC0040F0E0807B690093192301227049F86850
:10260C0000F064F90346002B01D00223D3E0FB68F1
:10261C0093F83C30012B01D10223CCE0FB68012262
:10262C0083F83C20FB681B681B6803F00103012B3B
:10263C0007D0FB681B681A68FB681B6842F0010234
:10264C001A60FB681B681A68FB681B6822F400623E
:10265C001A60FB68212283F83D20FB68102283F866
:10266C003E20FB6800221A64FB687A685A62FB6899
:10267C003A895A85FB685B8D9AB2FB681A85FB68B0
:10268C00504ADA6279897B693A6AF86800F09CF8FA
:10269C000346002B01D001238DE000233B61FB6836
:1026AC001B685B693B61FB681B689B693B613B6911
:1026BC0066E07A69396AF86800F0DEF90346002BA7
:1026CC000DD0FB681B6C042B07D1FB681B681A68C8
:1026DC00FB681B6842F400721A6001236BE0FB6814
:1026EC005B6A1A78FB681B681A61FB685B6A5A1C88
:1026FC00FB685A62FB685B8D9BB2013B9AB2FB682C
:10270C005A85FB681B8D013B9AB2FB681A85FB68E6
:10271C001B685B6903F00403042B1BD1FB681B8D46
:10272C00002B17D0FB685B6A1A78FB681B681A6170
:10273C00FB685B6A5A1CFB685A62FB685B8D9BB238
:10274C00013B9AB2FB685A85FB681B8D013B9AB220
:10275C00FB681A857A69396AF86800F0CEF9034685
:10276C00002B0DD0FB681B6C042B07D1FB681B687E
:10277C001A68FB681B6842F400721A6001231AE0A5
:10278C00FB681B8D002B94D1FB681B681A68FB68D7
:10279C001B6842F400721A60FB68202283F83D200B
:1027AC00FB68002283F83E20FB68002283F83C2063
:1027BC00002300E0022318461837BD4680BD00BF39
:1027CC00020010000000FFFF80B588B002AFF86077
:1027DC007A603B600B467B81FB68DB6A7B617B69C3
:1027EC00082B06D07B69012B03D07B6913F5803F46
:1027FC0008D1FB681B681A68FB681B6842F480727E
:10280C001A600BE0FB681B6B122B07D1FB681B6873
:10281C001A68FB681B6842F480721A603B6800936C
:10282C007B6800224FF00111F86800F04FF8034666
:10283C00002B0DD0FB681B681B6803F48073B3F589
:10284C00807F03D1FB684FF400721A64032335E0D8
:10285C00FB681B69B3F5804F08D17B89DBB21A4644
:10286C00FB681B6802F0FE021A611BE07B89DB111E
:10287C00DBB203F00603DBB263F00F03DAB2FB68E2
:10288C001B681A613B687A680E49F86800F075F8A5
:10289C000346002B01D0012310E07B89DAB2FB68E0
:1028AC001B681A613B687A680749F86800F065F89C
:1028BC000346002B01D0012300E0002318461837F3
:1028CC00BD4680BD080001000200010080B584B047
:1028DC0000AFF860B9603B601346FB7125E03B68C4
:1028EC00B3F1FF3F21D0FFF78BF90246BB69D31A36
:1028FC003A689A4202D33B68002B16D1FB6800223F
:10290C001A63FB68202283F83D20FB68002283F8C1
:10291C003E20FB681B6C43F02002FB681A64FB68CA
:10292C00002283F83C20012323E0BB681B0CDBB2A4
:10293C00012B0DD1FB681B685B69DA43BB68134044
:10294C009BB2002B0CBF01230023DBB21A460CE018
:10295C00FB681B689B69DA43BB6813409BB2002B76
:10296C000CBF01230023DBB21A46FB799A42B6D086
:10297C00002318461037BD4680BD80B584B000AF2B
:10298C00F860B9607A603B6051E0FB681B685B697A
:10299C0003F48063B3F5806F23D1FB681B681A685E
:1029AC00FB681B6842F400721A60FB681B686FF4CA
:1029BC0080625A61FB6800221A63FB68202283F84C
:1029CC003D20FB68002283F83E20FB681B6C43F023
:1029DC000402FB681A64FB68002283F83C20012384
:1029EC0046E07B68B3F1FF3F21D0FFF709F90246BF
:1029FC003B68D31A7A689A4202D37B68002B16D1B3
:102A0C00FB6800221A63FB68202283F83D20FB68D8
:102A1C00002283F83E20FB681B6C43F02002FB680D
:102A2C001A64FB68002283F83C20012320E0BB6879
:102A3C001B0CDBB2012B0CD1FB681B685B69DA4306
:102A4C00BB6813409BB2002B14BF01230023DBB2E5
:102A5C000BE0FB681B689B69DA43BB6813409BB2B5
:102A6C00002B14BF01230023DBB2002B8DD10023DC
:102A7C0018461037BD4680BD80B584B000AFF860F5
:102A8C00B9607A602DE0F86800F078F80346002B06
:102A9C0001D001232DE0BB68B3F1FF3F21D0FFF73C
:102AAC00AFF802467B68D31ABA689A4202D3BB6865
:102ABC00002B16D1FB6800221A63FB68202283F8D6
:102ACC003D20FB68002283F83E20FB681B6C43F022
:102ADC002002FB681A64FB68002283F83C20012367
:102AEC0007E0FB681B685B6903F08003802BCAD18D
:102AFC00002318461037BD4680BD80B584B000AFAA
:102B0C00F860B9607A602DE0F86800F037F8034699
:102B1C00002B01D001232DE0BB68B3F1FF3F21D086
:102B2C00FFF76EF802467B68D31ABA689A4202D352
:102B3C00BB68002B16D1FB6800221A63FB682022AD
:102B4C0083F83D20FB68002283F83E20FB681B6C59
:102B5C0043F02002FB681A64FB68002283F83C20D7
:102B6C00012307E0FB681B685B6903F00403042B7B
:102B7C00CAD1002318461037BD4680BD80B483B03F
:102B8C0000AF78607B681B685B6903F48063B3F506
:102B9C00806F1BD17B681B686FF480625A617B6805
:102BAC0000221A637B68202283F83D207B68002278
:102BBC0083F83E207B681B6C43F004027B681A642C
:102BCC007B68002283F83C20012300E00023184698
:102BDC000C37BD4680BC704780B586B000AF7860BE
:102BEC007B68002B01D1012372E27B681B6803F028
:102BFC000103002B00F08780924B5B6803F00C0301
:102C0C00042B0CD08F4B5B6803F00C03082B12D1F8
:102C1C008C4B5B6803F48033B3F5803F0BD1894B4D
:102C2C001B6803F40033002B6CD07B685B68002BB3
:102C3C0068D101234CE27B685B68B3F5803F06D119
:102C4C00804B1B687F4A43F4803313602EE07B6813
:102C5C005B68002B0CD17B4B1B687A4A23F48033C6
:102C6C001360784B1B68774A23F4802313601DE0B4
:102C7C007B685B68B3F5A02F0CD1724B1B68714A53
:102C8C0043F4802313606F4B1B686E4A43F480330C
:102C9C0013600BE06B4B1B686A4A23F480331360A0
:102CAC00684B1B68674A23F4802313607B685B685E
:102CBC00002B13D0FEF7A4FF386108E0FEF7A0FF4D
:102CCC0002463B69D31A642B01D9032300E25D4B06
:102CDC001B6803F40033002BF0D014E0FEF790FFD8
:102CEC00386108E0FEF78CFF02463B69D31A642B6F
:102CFC0001D90323ECE1534B1B6803F40033002B85
:102D0C00F0D100E000BF7B681B6803F00203002BCE
:102D1C0063D04C4B5B6803F00C03002B0BD0494B7E
:102D2C005B6803F00C03082B1CD1464B5B6803F467
:102D3C008033002B16D1434B1B6803F00203002B8E
:102D4C0005D07B681B69012B01D00123C0E13D4BF1
:102D5C001B6823F0F8027B685B69DB00394913437D
:102D6C000B603AE07B681B69002B20D0364B0122AC
:102D7C001A60FEF745FF386108E0FEF741FF024696
:102D8C003B69D31A022B01D90323A1E12D4B1B68FC
:102D9C0003F00203002BF0D02A4B1B6823F0F8023F
:102DAC007B685B69DB00274913430B6015E0264BFE
:102DBC0000221A60FEF724FF386108E0FEF720FFBE
:102DCC0002463B69D31A022B01D9032380E11D4B28
:102DDC001B6803F00203002BF0D17B681B6803F027
:102DEC000803002B3AD07B689B69002B19D0174B3A
:102DFC0001221A60FEF704FF386108E0FEF700FFBD
:102E0C0002463B69D31A022B01D9032360E10D4B17
:102E1C005B6A03F00203002BF0D0012000F0D8FA1B
:102E2C001CE00A4B00221A60FEF7EAFE38610FE044
:102E3C00FEF7E6FE02463B69D31A022B08D90323A0
:102E4C0046E100BF001002400000424280044242B2
:102E5C00924B5B6A03F00203002BE9D17B681B6881
:102E6C0003F00403002B00F0A6800023FB758B4BB2
:102E7C00DB6903F08053002B0DD1884BDB69874A4B
:102E8C0043F08053D361854BDB6903F08053BB6007
:102E9C00BB680123FB75824B1B6803F48073002B0A
:102EAC0018D17F4B1B687E4A43F480731360FEF786
:102EBC00A7FE386108E0FEF7A3FE02463B69D31A71
:102ECC00642B01D9032303E1754B1B6803F4807356
:102EDC00002BF0D07B68DB68012B06D16F4B1B6A93
:102EEC006E4A43F0010313622DE07B68DB68002B14
:102EFC000CD16A4B1B6A694A23F001031362674BBE
:102F0C001B6A664A23F0040313621CE07B68DB68CF
:102F1C00052B0CD1614B1B6A604A43F0040313620E
:102F2C005E4B1B6A5D4A43F0010313620BE05B4B83
:102F3C001B6A5A4A23F001031362584B1B6A574A07
:102F4C0023F0040313627B68DB68002B15D0FEF7BB
:102F5C0057FE38610AE0FEF753FE02463B69D31A6E
:102F6C0041F28832934201D90323B1E04B4B1B6AE7
:102F7C0003F00203002BEED014E0FEF741FE3861A3
:102F8C000AE0FEF73DFE02463B69D31A41F2883255
:102F9C00934201D903239BE0404B1B6A03F00203CD
:102FAC00002BEED1FB7D012B05D13C4BDB693B4A61
:102FBC0023F08053D3617B68DB69002B00F08780A2
:102FCC00364B5B6803F00C03082B61D07B68DB6924
:102FDC00022B46D1334B00221A60FEF711FE3861EA
:102FEC0008E0FEF70DFE02463B69D31A022B01D90D
:102FFC0003236DE0294B1B6803F00073002BF0D109
:10300C007B681B6AB3F5803F08D1244B5B6823F4C3
:10301C0000327B689B68214913434B601F4B5B68F4
:10302C0023F474127B68196A7B685B6A0B431B4937
:10303C0013434B601B4B01221A60FEF7E1FD386114
:10304C0008E0FEF7DDFD02463B69D31A022B01D9DD
:10305C0003233DE0114B1B6803F00073002BF0D0F1
:10306C0035E0104B00221A60FEF7CAFD386108E00B
:10307C00FEF7C6FD02463B69D31A022B01D9032386
:10308C0026E0064B1B6803F00073002BF0D11EE00A
:10309C007B68DB69012B07D1012319E0001002408A
:1030AC0000700040600042420B4B5B68FB60FB68A9
:1030BC0003F480327B681B6A9A4206D1FB6803F4E6
:1030CC0070127B685B6A9A4201D0012300E00023F6
:1030DC0018461837BD4680BD0010024080B584B03C
:1030EC0000AF786039607B68002B01D10123D0E000
:1030FC006A4B1B6803F007033A689A4210D9674B76
:10310C001B6823F0070265493B6813430B60634B54
:10311C001B6803F007033A689A4201D00123B8E018
:10312C007B681B6803F00203002B20D07B681B68B4
:10313C0003F00403002B05D0594B5B68584A43F449
:10314C00E06353607B681B6803F00803002B05D019
:10315C00534B5B68524A43F460535360504B5B686B
:10316C0023F0F0027B689B684D4913434B607B68EE
:10317C001B6803F00103002B40D07B685B68012BBC
:10318C0007D1474B1B6803F40033002B15D10123E7
:10319C007FE07B685B68022B07D1414B1B6803F017
:1031AC000073002B09D1012373E03D4B1B6803F026
:1031BC000203002B01D101236BE0394B5B6823F038
:1031CC0003027B685B68364913434B60FEF718FDBE
:1031DC00F8600AE0FEF714FD0246FB68D31A41F2D0
:1031EC008832934201D9032353E02D4B5B6803F0E3
:1031FC000C027B685B689B009A42EBD1274B1B68E7
:10320C0003F007033A689A4210D2244B1B6823F050
:10321C00070222493B6813430B60204B1B6803F0E9
:10322C0007033A689A4201D0012332E07B681B689D
:10323C0003F00403002B08D0194B5B6823F4E06205
:10324C007B68DB68164913434B607B681B6803F093
:10325C000803002B09D0124B5B6823F460527B6887
:10326C001B69DB000E4913434B6000F021F802464A
:10327C000B4B5B681B0903F00F030A49CB5C22FA6A
:10328C0003F3094A1360094B1B681846FEF776FCDA
:10329C00002318461037BD4680BD00BF00200240F9
:1032AC0000100240A8500008180000202000002048
:1032BC0090B48AB000AF294B3C1D0FCB84E80F00B3
:1032CC0040F201233B800023FB610023BB61002300
:1032DC007B6200237B6100233B62214B5B68FB61BB
:1032EC00FB6903F00C03042B02D0082B03D02BE05A
:1032FC001C4B3B622BE0FB699B0C03F00F03283348
:10330C003B4413F8243C7B61FB6903F48033002BB2
:10331C0012D0134B5B685B0C03F0010328333B4466
:10332C0013F8283CBB617B690E4A03FB02F2BB69B4
:10333C00B2FBF3F37B6204E07B690B4A02FB03F301
:10334C007B627B6A3B6202E0064B3B6200BF3B6ADE
:10335C0018462837BD4690BC704700BF98500008EF
:10336C000010024000127A0000093D0080B400AF4A
:10337C00024B1B681846BD4680BC704718000020E5
:10338C0080B500AFFFF7F2FF0246054B5B681B0AE6
:10339C0003F007030349CB5C22FA03F3184680BD04
:1033AC0000100240B850000880B500AFFFF7DEFFF8
:1033BC000246054B5B68DB0A03F007030349CB5C51
:1033CC0022FA03F3184680BD00100240B8500008E2
:1033DC0080B485B000AF78600A4B1B680A4AA2FB28
:1033EC0003235B0A7A6802FB03F3FB6000BFFB68F4
:1033FC005A1EFA60002BF9D100BF00BF1437BD462E
:10340C0080BC704718000020D34D621080B582B08C
:10341C0000AF78607B68002B01D1012341E07B6811
:10342C0093F83D30DBB2002B06D17B68002283F889
:10343C003C207868FEF704F97B68022283F83D2073
:10344C007B681A687B6804331946104600F070FAE2
:10345C007B68012283F846207B68012283F83E209A
:10346C007B68012283F83F207B68012283F840208F
:10347C007B68012283F841207B68012283F842207B
:10348C007B68012283F843207B68012283F8442067
:10349C007B68012283F845207B68012283F83D205C
:1034AC00002318460837BD4680BD000080B485B0A7
:1034BC0000AF78607B6893F83D30DBB2012B01D014
:1034CC0001233AE07B68022283F83D207B681B686D
:1034DC00DA687B681B6842F00102DA607B681B6863
:1034EC00184A93420ED07B681B68B3F1804F09D009
:1034FC007B681B68144A934204D07B681B68134A90
:10350C00934211D17B681B689B6803F00703FB6037
:10351C00FB68062B10D07B681B681A687B681B68DD
:10352C0042F001021A6007E07B681B681A687B682E
:10353C001B6842F001021A60002318461437BD467E
:10354C0080BC7047002C0140000400400008004083
:10355C0080B582B000AF78607B681B681B6903F094
:10356C000203022B22D17B681B68DB6803F0020389
:10357C00022B1BD17B681B686FF002021A617B68FF
:10358C0001221A777B681B689B6903F00303002BED
:10359C0003D0786800F0B1F905E0786800F0A4F980
:1035AC00786800F0B3F97B6800221A777B681B6897
:1035BC001B6903F00403042B22D17B681B68DB68B6
:1035CC0003F00403042B1BD17B681B686FF004020F
:1035DC001A617B6802221A777B681B689B6903F46B
:1035EC004073002B03D0786800F087F905E0786809
:1035FC0000F07AF9786800F089F97B6800221A7774
:10360C007B681B681B6903F00803082B22D17B68BD
:10361C001B68DB6803F00803082B1BD17B681B6855
:10362C006FF008021A617B6804221A777B681B68AA
:10363C00DB6903F00303002B03D0786800F05DF91D
:10364C0005E0786800F050F9786800F05FF97B6865
:10365C0000221A777B681B681B6903F01003102B80
:10366C0022D17B681B68DB6803F01003102B1BD185
:10367C007B681B686FF010021A617B6808221A774E
:10368C007B681B68DB6903F44073002B03D07868FC
:10369C0000F033F905E0786800F026F9786800F05E
:1036AC0035F97B6800221A777B681B681B6903F06D
:1036BC000103012B0ED17B681B68DB6803F001034F
:1036CC00012B07D17B681B686FF001021A617868C7
:1036DC00FDF7F0FD7B681B681B6903F08003802BF2
:1036EC000ED17B681B68DB6803F08003802B07D14D
:1036FC007B681B686FF080021A61786800F077FABB
:10370C007B681B681B6903F04003402B0ED17B6860
:10371C001B68DB6803F04003402B07D17B681B68F8
:10372C006FF040021A61786800F0F9F87B681B684A
:10373C001B6903F02003202B0ED17B681B68DB6810
:10374C0003F02003202B07D17B681B686FF020024D
:10375C001A61786800F042FA00BF0837BD4680BD98
:10376C0080B584B000AF786039607B6893F83C30EA
:10377C00012B01D10223B3E07B68012283F83C20AA
:10378C007B68022283F83D207B681B689B68FB608A
:10379C00FB6823F07703FB60FB6823F47F43FB603B
:1037AC007B681B68FA689A603B681B68B3F5005F1E
:1037BC003ED0B3F5005F00F28780B3F5805F00F078
:1037CC008580B3F5805F7FD8702B1AD0702B7BD897
:1037DC00602B50D0602B77D8502B3CD0502B73D80B
:1037EC00402B58D0402B6FD8302B64D0302B6BD85B
:1037FC00202B60D0202B67D8002B5CD0102B5AD0FC
:10380C0062E07B6818683B6899683B685A683B685B
:10381C00DB6800F066F97B681B689B68FB60FB68E3
:10382C0043F07703FB607B681B68FA689A604EE094
:10383C007B6818683B6899683B685A683B68DB682A
:10384C0000F04FF97B681B689A687B681B6842F430
:10385C0080429A603BE07B6818683B6859683B681B
:10386C00DB681A4600F0C6F87B681B6850211846C6
:10387C0000F01DF92BE07B6818683B6859683B68C1
:10388C00DB681A4600F0E4F87B681B686021184678
:10389C0000F00DF91BE07B6818683B6859683B68C1
:1038AC00DB681A4600F0A6F87B681B6840211846B6
:1038BC0000F0FDF80BE07B681A683B681B68194642
:1038CC00104600F0F4F802E000BF00E000BF7B6897
:1038DC00012283F83D207B68002283F83C200023E2
:1038EC0018461037BD4680BD80B483B000AF7860F9
:1038FC0000BF0C37BD4680BC704780B483B000AFAE
:10390C00786000BF0C37BD4680BC704780B483B074
:10391C0000AF786000BF0C37BD4680BC704780B4E8
:10392C0083B000AF786000BF0C37BD4680BC7047D9
:10393C0080B485B000AF786039607B681B68FB6031
:10394C007B68294A93420BD07B68B3F1804F07D038
:10395C007B68264A934203D07B68254A934208D160
:10396C00FB6823F07003FB603B685B68FA681343E9
:10397C00FB607B681C4A93420BD07B68B3F1804F91
:10398C0007D07B68194A934203D07B68184A93424C
:10399C0008D1FB6823F44073FB603B68DB68FA6872
:1039AC001343FB60FB6823F080023B685B691343A5
:1039BC00FB607B68FA681A603B689A687B68DA621D
:1039CC003B681A687B689A627B68074A934203D10A
:1039DC003B681A697B681A637B6801225A6100BFD5
:1039EC001437BD4680BC7047002C014000040040D9
:1039FC000008004080B487B000AFF860B9607A600E
:103A0C00FB681B6A7B61FB681B6A23F00102FB6885
:103A1C001A62FB689B693B613B6923F0F0033B61D5
:103A2C007B681B013A6913433B617B6923F00A03F2
:103A3C007B617A69BB6813437B61FB683A699A6165
:103A4C00FB687A691A6200BF1C37BD4680BC7047A0
:103A5C0080B487B000AFF860B9607A60FB681B6A0D
:103A6C0023F01002FB681A62FB689B697B61FB68A0
:103A7C001B6A3B617B6923F470437B617B681B038E
:103A8C007A6913437B613B6923F0A0033B61BB68FC
:103A9C001B013A6913433B61FB687A699A61FB68C5
:103AAC003A691A6200BF1C37BD4680BC704780B4AF
:103ABC0085B000AF786039607B689B68FB60FB6801
:103ACC0023F07003FB603A68FB68134343F0070371
:103ADC00FB607B68FA689A6000BF1437BD4680BCF7
:103AEC00704780B487B000AFF860B9607A603B6013
:103AFC00FB689B687B617B6923F47F437B613B683C
:103B0C001A027B681A43BB6813437A6913437B61BF
:103B1C00FB687A699A6000BF1C37BD4680BC704751
:103B2C0080B485B000AF786039607B6893F83C3026
:103B3C00012B01D1022346E07B68012283F83C2053
:103B4C007B68022283F83D207B681B685B68FB6006
:103B5C007B681B689B68BB60FB6823F07003FB6091
:103B6C003B681B68FA681343FB607B681B68FA6848
:103B7C005A607B681B68164A93420ED07B681B68A0
:103B8C00B3F1804F09D07B681B68124A934204D072
:103B9C007B681B68104A93420CD1BB6823F08003EE
:103BAC00BB603B685B68BA681343BB607B681B688F
:103BBC00BA689A607B68012283F83D207B680022FA
:103BCC0083F83C20002318461437BD4680BC704750
:103BDC00002C0140000400400008004080B483B079
:103BEC0000AF786000BF0C37BD4680BC704780B416
:103BFC0083B000AF786000BF0C37BD4680BC704707
:103C0C0080B582B000AF78607B68002B01D10123B6
:103C1C003FE07B6893F83D30DBB2002B06D17B682C
:103C2C00002283F83C207868FDF72EFD7B68242267
:103C3C0083F83D207B681B68DA687B681B6822F47C
:103C4C000052DA60786800F085FC7B681B681A69A2
:103C5C007B681B6822F490421A617B681B685A6966
:103C6C007B681B6822F02A025A617B681B68DA6841
:103C7C007B681B6842F40052DA607B6800221A648D
:103C8C007B68202283F83D207B68202283F83E202D
:103C9C00002318460837BD4680BD80B58AB002AFF8
:103CAC00F860B9603B601346FB8000237B61FB68C6
:103CBC0093F83D30DBB2202B7CD1BB68002B02D0BB
:103CCC00FB88002B01D1012375E0FB6893F83C3095
:103CDC00012B01D102236EE0FB68012283F83C200A
:103CEC00FB6800221A64FB68212283F83D20FDF753
:103CFC0087FF7861FB68FA889A84FB68FA88DA8413
:103D0C00FB689B68B3F5805F08D1FB681B69002BCF
:103D1C0004D10023FB61BB68BB6103E0BB68FB61A2
:103D2C000023BB61FB68002283F83C202AE03B683F
:103D3C0000937B6900228021F86800F038FA034672
:103D4C00002B01D0032336E0FB69002B0BD1BB69A0
:103D5C001B881A46FB681B68C2F308025A60BB69D1
:103D6C000233BB6107E0FB691A78FB681B685A6079
:103D7C00FB690133FB61FB68DB8C9BB2013B9AB2A4
:103D8C00FB68DA84FB68DB8C9BB2002BCFD13B68E1
:103D9C0000937B6900224021F86800F008FA034682
:103DAC00002B01D0032306E0FB68202283F83D2082
:103DBC00002300E0022318462037BD4680BD80B5A5
:103DCC0084B000AFF860B9601346FB80FB6893F8D1
:103DDC003E30DBB2202B1DD1BB68002B02D0FB8800
:103DEC00002B01D1012316E0FB6893F83C30012B2A
:103DFC0001D102230FE0FB68012283F83C20FB6811
:103E0C0000221A63FB881A46B968F86800F019FAA0
:103E1C00034600E0022318461037BD4680BD000063
:103E2C0080B58AB000AF78607B681B681B687B62CA
:103E3C007B681B68DB683B627B681B685B69FB61AA
:103E4C000023BB6100237B617B6A03F00F03BB6122
:103E5C00BB69002B0DD17B6A03F02003002B08D02B
:103E6C003B6A03F02003002B03D0786800F0C9FAFA
:103E7C007BE1BB69002B00F0B180FB6903F001030F
:103E8C00002B05D13B6A03F49073002B00F0A68045
:103E9C007B6A03F00103002B0AD03B6A03F48073A6
:103EAC00002B05D07B681B6C43F001027B681A6405
:103EBC007B6A03F00403002B0AD0FB6903F00103B7
:103ECC00002B05D07B681B6C43F002027B681A64E4
:103EDC007B6A03F00203002B0AD0FB6903F0010399
:103EEC00002B05D07B681B6C43F004027B681A64C2
:103EFC007B6A03F00803002B0FD03B6A03F020030E
:103F0C00002B04D1FB6903F00103002B05D07B6867
:103F1C001B6C43F008027B681A647B681B6C002BDB
:103F2C0000F01E817B6A03F02003002B07D03B6A54
:103F3C0003F02003002B02D0786800F062FA7B6853
:103F4C001B685B6903F04003002B14BF01230023A3
:103F5C00DBB27B617B681B6C03F00803002B02D186
:103F6C007B69002B31D0786800F0A4F97B681B6862
:103F7C005B6903F04003002B23D07B681B685A69F4
:103F8C007B681B6822F040025A617B689B6B002B9C
:103F9C0013D07B689B6B764A5A637B689B6B184685
:103FAC00FDF7A4FF0346002B16D07B689B6B5B6B65
:103FBC007A68926B104698470EE0786800F0E3F848
:103FCC000AE0786800F0DFF806E0786800F0DBF8CB
:103FDC007B6800221A64C3E000BFC1E07B681B6BE6
:103FEC00012B40F0A1807B6A03F01003002B00F042
:103FFC009B803B6A03F01003002B00F0958000239C
:10400C00FB607B681B681B68FB607B681B685B68DC
:10401C00FB60FB687B681B685B6903F04003002B4B
:10402C004ED07B689B6B1B685B683B823B8A002B8A
:10403C0000F098807B689B8D3A8A9A4280F092803F
:10404C007B683A8ADA857B689B6B9B69202B2BD02B
:10405C007B681B68DA687B681B6822F48072DA6004
:10406C007B681B685A697B681B6822F001025A61E5
:10407C007B681B685A697B681B6822F040025A6196
:10408C007B68202283F83E207B6800221A637B68C1
:10409C001B68DA687B681B6822F01002DA607B68A8
:1040AC009B6B1846FDF7E7FE7B689A8D7B68DB8D72
:1040BC009BB2D31A9BB21946786800F06DF851E0A8
:1040CC007B689A8D7B68DB8D9BB2D31A7B827B6875
:1040DC00DB8D9BB2002B47D07B8A002B44D07B68B6
:1040EC001B68DA687B681B6822F49072DA607B6864
:1040FC001B685A697B681B6822F001025A617B6855
:10410C00202283F83E207B6800221A637B681B68A0
:10411C00DA687B681B6822F01002DA607B8A194629
:10412C00786800F039F81FE07B6A03F08003002BFD
:10413C0008D03B6A03F08003002B03D0786800F0B2
:10414C00F9F812E07B6A03F04003002B0DD03B6AB8
:10415C0003F04003002B08D0786800F03AF904E033
:10416C0000BF02E000BF00E000BF2837BD4680BDA5
:10417C001943000880B483B000AF786000BF0C37DF
:10418C00BD4680BC704780B483B000AF786000BF80
:10419C000C37BD4680BC704780B483B000AF7860EC
:1041AC000B467B8000BF0C37BD4680BC704780B58A
:1041BC0084B000AFF860B9603B601346FB712CE033
:1041CC00BB69B3F1FF3F28D0BB69002B07D0FDF7CB
:1041DC0017FD02463B68D31ABA699A421DD2FB6896
:1041EC001B68DA68FB681B6822F4D072DA60FB6823
:1041FC001B685A69FB681B6822F001025A61FB6854
:10420C00202283F83D20FB68202283F83E20FB68A7
:10421C00002283F83C2003230FE0FB681B681A681C
:10422C00BB681340BA689A420CBF01230023DBB26F
:10423C001A46FB799A42C3D0002318461037BD4664
:10424C0080BD80B485B000AFF860B9601346FB80C8
:10425C00FB68BA689A62FB68FA889A85FB68FA88E8
:10426C00DA85FB6800221A64FB68222283F83E2060
:10427C00FB68002283F83C20FB681B68DA68FB684B
:10428C001B6842F48072DA60FB681B685A69FB6831
:10429C001B6842F001025A61FB681B68DA68FB6814
:1042AC001B6842F02002DA60002318461437BD4622
:1042BC0080BC704780B483B000AF78607B681B68AB
:1042CC00DA687B681B6822F49072DA607B681B6882
:1042DC005A697B681B6822F001025A617B681B6B70
:1042EC00012B07D17B681B68DA687B681B6822F09E
:1042FC001002DA607B68202283F83E207B68002263
:10430C001A6300BF0C37BD4680BC704780B584B0C3
:10431C0000AF78607B685B6AFB60FB680022DA8523
:10432C00FB680022DA84F868FFF72DFF00BF103716
:10433C00BD4680BD80B485B000AF78607B6893F8D3
:10434C003D30DBB2212B3ED17B689B68B3F5805F9F
:10435C0014D17B681B69002B10D17B681B6AFB6036
:10436C00FB681B881A467B681B68C2F308025A60FC
:10437C007B681B6A9A1C7B681A6208E07B681B6A64
:10438C00591C7A6811621A787B681B685A607B68C2
:10439C00DB8C9BB2013B9BB27A681946D184002B13
:1043AC000FD17B681B68DA687B681B6822F080027F
:1043BC00DA607B681B68DA687B681B6842F0400235
:1043CC00DA60002300E0022318461437BD4680BC97
:1043DC00704780B582B000AF78607B681B68DA6884
:1043EC007B681B6822F04002DA607B68202283F82D
:1043FC003D207868FFF7BEFE002318460837BD46FF
:10440C0080BD80B586B000AF78607B6893F83E3095
:10441C00DBB2222B40F099807B689B68B3F5805F00
:10442C0017D17B681B69002B13D100237B617B6840
:10443C009B6A3B617B681B685B689BB2C3F3080398
:10444C009AB23B691A807B689B6A9A1C7B689A6259
:10445C0026E07B689B6A7B6100233B617B689B68E1
:10446C00B3F5805F07D07B689B68002B0AD17B6813
:10447C001B69002B06D17B681B685B68DAB27B6911
:10448C001A7008E07B681B685B68DBB203F07F0383
:10449C00DAB27B691A707B689B6A5A1C7B689A62D9
:1044AC007B68DB8D9BB2013B9BB27A681946D18548
:1044BC00002B48D17B681B68DA687B681B6822F08C
:1044CC002002DA607B681B68DA687B681B6822F460
:1044DC008072DA607B681B685A697B681B6822F003
:1044EC0001025A617B68202283F83E207B681B6B9B
:1044FC00012B23D17B6800221A637B681B68DA6866
:10450C007B681B6822F01002DA607B681B681B68F2
:10451C0003F01003102B0AD10023FB607B681B688F
:10452C001B68FB607B681B685B68FB60FB687B68D7
:10453C009B8D19467868FFF72FFE02E07868FCF730
:10454C00D5FC002302E0002300E0022318461837B4
:10455C00BD4680BD80B584B000AF78607B681B68B9
:10456C001B6923F440517B68DA687B681B680A433B
:10457C001A617B689A687B681B691A437B685B6964
:10458C001343BB607B681B68DB6823F4B05323F0D8
:10459C000C037A681268B9680B43D3607B681B689C
:1045AC005B6923F440717B689A697B681B680A43DA
:1045BC005A617B681B682C4A934203D1FEF7F4FEC8
:1045CC00F86002E0FEF7DCFEF860FA6813469B0028
:1045DC0013449A001A447B685B689B00B2FBF3F3AC
:1045EC00224AA2FB03235B091901FA6813469B00BC
:1045FC0013449A001A447B685B689B00B2FBF3F28D
:10460C001A4BA3FB02035B09642000FB03F3D31AD0
:10461C001B013233154AA2FB03235B0903F0F003A1
:10462C001944FA6813469B0013449A001A447B6899
:10463C005B689B00B2FBF3F20C4BA3FB02035B0920
:10464C00642000FB03F3D31A1B013233074AA2FB8D
:10465C0003235B0903F00F027B681B680A449A6012
:10466C0000BF1037BD4680BD003801401F85EB519F
:10467C00014B1868704700BF2800002070B5002659
:10468C000C4D0D4C641BA410A64209D100F09CFCEF
:10469C0000260A4D0A4C641BA410A64205D170BD1D
:1046AC0055F8043B98470136EEE755F8043B98471C
:1046BC000136F2E7F4500008F4500008F4500008FA
:1046CC00F850000803460244934200D1704703F8A7
:1046DC00011BF9E70EB46FF0004100B59CB01DABA7
:1046EC0002900690079104910848094953F8042B4D
:1046FC000591006802A9019300F068F80022029B62
:10470C001A701CB05DF804EB03B070472800002051
:10471C000802FFFF2DE9F0478E6882469E420C4648
:10472C0090461F4638D88A8912F4906F32D025688B
:10473C0009690133A5EB010965694B4405EB450596
:10474C0005EBD5756D109D4238BF1D46530531D50F
:10475C00294600F06FFB064650B90C234FF0FF3092
:10476C00CAF80030A38943F04003A381BDE8F08769
:10477C004A46216900F0CEFAA38923F4906343F0F2
:10478C008003A38126614E4426603E466561A5EBFD
:10479C000905A560BE4200D93E4632464146206816
:1047AC0000F0C6FAA36800209B1BA3602368334467
:1047BC002360DBE72A4600F0B1FB06460028E1D176
:1047CC005046216900F0CEFAC7E700002DE9F04F02
:1047DC0098468B8907461B060D4614469DB00ED590
:1047EC000B6963B9402100F025FB2860286120B9D2
:1047FC000C233B604FF0FF30D1E040236B61002372
:10480C00099320238DF8293030234FF00109CDF87E
:10481C000C80DFF8A4818DF82A3023469A4613F8D1
:10482C00012B0AB1252AF9D1BAEB040B0BD05B464C
:10483C00224629463846FFF76DFF013000F0AA806A
:10484C00099A5A4409929AF80030002B00F0A28081
:10485C0000234FF0FF32CDE905230AF1010A04933E
:10486C0007938DF853301A935446052214F8011B04
:10487C00514800F041FA049AD8B9D00644BF20231D
:10488C008DF85330110744BF2B238DF853309AF811
:10489C0000302A2B15D0544600204FF00A0C079AF2
:1048AC00214611F8013B303B092B4ED9B0B1079290
:1048BC0014E0A0EB080309FA03F31343A246049394
:1048CC00D2E7039B191D1B680391002BBBBF5B42F6
:1048DC0042F0020207930793B8BF049223782E2B61
:1048EC000CD163782A2B35D1039B02341A1D1B681B
:1048FC000392002BB8BF4FF0FF330593DFF8BCA039
:10490C0003225046217800F0F7F940B14023A0EB88
:10491C000A0003FA00F0049B01340343049314F8D7
:10492C00011B062226488DF8281000F0E5F9002816
:10493C0038D0244B1BBB039B073323F007030833EE
:10494C000393099B3344099367E70C4601200CFB46
:10495C000232A5E700234FF00A0C194601340593E7
:10496C00204610F8012B303A092A03D9002BC5D068
:10497C000591C3E7044601230CFB0121F0E703ABCF
:10498C0000932A463846104B04A9AFF30080421C12
:10499C000646D6D1AB895B063FF52CAF09981DB006
:1049AC00BDE8F08F03AB00932A463846064B04A9AA
:1049BC0000F07CF8EBE700BFC0500008C6500008C0
:1049CC00CA50000800000000214700082DE9F047FC
:1049DC00164699468A680B6907469342B8BF134638
:1049EC00336091F843200C46DDF820800AB1013386
:1049FC0033602368990642BF3368023333602568FD
:104A0C0015F0060506D104F1190AE36832689B1A01
:104A1C00AB4228DC94F84320131E226818BF0123F4
:104A2C0092062DD44946384604F14302C047013062
:104A3C0020D02368E56803F00603042B18BF00257B
:104A4C0032684FF00006A36808BFAD1A226908BF90
:104A5C0025EAE5759342C4BF9B1AED181A34B5428A
:104A6C001AD1002008E00123524649463846C04777
:104A7C00013003D14FF0FF30BDE8F0870135C4E7BA
:104A8C003020E11881F843005A1C94F84510224458
:104A9C00023382F84310C5E70123224649463846C3
:104AAC00C0470130E6D00136D9E700002DE9FF47B9
:104ABC000F7E9146782F80460C469A460C9D01F14C
:104ACC00430207D8622F0AD8002F00F0D980582F44
:104ADC0000F0A48004F1420584F842703AE0A7F19A
:104AEC006303152BF6D801A151F823F0514B0008A4
:104AFC00654B0008E14A0008E14A0008E14A000859
:104B0C00E14A0008654B0008E14A0008E14A000848
:104B1C00E14A0008E14A0008734C0008954B000874
:104B2C00554C0008E14A0008E14A0008954C000881
:104B3C00E14A0008954B0008E14A0008E14A0008E8
:104B4C005D4C00082B681A1D1B682A6004F1420595
:104B5C0084F842300123A4E020682968060601F19C
:104B6C0004030AD50E682B60002E03DA2D2376423F
:104B7C0084F843300A235E4819E00E6810F0400FA9
:104B8C002B6018BF36B2EFE72B682068191D29601F
:104B9C00010601D51E6802E04606FBD51E886F2F64
:104BAC000CBF08230A235248002184F8431065687F
:104BBC00002DA8BF2168A560A4BF21F004012160CD
:104BCC000EB9002D4DD01546B6FBF3F103FB116762
:104BDC00C75D05F8017D3746BB420E46F4D9082B5C
:104BEC000BD12368DE0708D5236961689942DEBFC3
:104BFC00302305F8013C05F1FF35521B22614B4671
:104C0C0021464046CDF800A003AAFFF7DFFE013095
:104C1C004CD14FF0FF3004B0BDE8F087344881F838
:104C2C0045702968236851F8046B29601D0614D55A
:104C3C00DF0744BF43F0200323601EB9236823F031
:104C4C00200323601023AFE7236843F02003236085
:104C5C007823284884F84530E3E7590648BFB6B2B4
:104C6C00E6E71546BBE72B682668181D61692860C6
:104C7C0035061B6801D5196002E07006FBD519805A
:104C8C00002315462361BAE72B6800211A1D2A6000
:104C9C001D686268284600F02FF808B1401B606060
:104CAC0063682361002384F84330A8E72A46494609
:104CBC0040462369D0470130ABD023689B0713D4FF
:104CCC00E068039B9842B8BF1846A4E7012332461C
:104CDC0049464046D04701309BD00135E3680399E3
:104CEC005B1AAB42F2DCEBE7002504F11906F5E7A1
:104CFC00D1500008E2500008034610B5C9B2024476
:104D0C009342184601D1002003E0047801338C4211
:104D1C00F6D110BD0A44914200F1FF3300D1704727
:104D2C0010B511F8014B914203F8014FF9D110BDA8
:104D3C00884210B501EB020402D98442234607D8FD
:104D4C00431EA14208D011F8012B03F8012FF8E7FC
:104D5C00014602448A4200D110BD13F8014D02F8FD
:104D6C00014DF7E738B50546002940D051F8043C11
:104D7C000C1F002BB8BFE41800F010F91C4A136884
:104D8C0033B9636014602846BDE8384000F00CB9B4
:104D9C00A34208D9206821188B4201BF19685B68AF
:104DAC0009182160EDE71A465B680BB1A342FAD9EA
:104DBC0011685018A0420BD120680144501883424E
:104DCC001160E0D118685B68014411605360DAE748
:104DDC0002D90C232B60D6E7206821188B4201BF27
:104DEC0019685B680918216063605460CBE738BDB3
:104DFC006802002070B50E4E0C463168054611B99C
:104E0C0000F0BCF830602146284600F0B7F8431C8F
:104E1C000AD0C41C24F00304A04207D0211A28464F
:104E2C0000F0ACF8013001D14FF0FF34204670BDDA
:104E3C006C0200202DE9F041CD1C25F0030508354E
:104E4C000C2D38BF0C25002D074601DBA94205D9D6
:104E5C000C2300263B603046BDE8F0812E4E00F05E
:104E6C009DF833681C4634BB29463846FFF7C2FF11
:104E7C00431C04464DD134682646002E40D123688D
:104E8C003146384604EB030800F078F880453AD1F7
:104E9C00216803356D1A25F0030508350C2D38BF34
:104EAC000C2538462946FFF7A5FF01302BD0236887
:104EBC002B4423600EE02268521B1ED40B2A16D9F9
:104ECC006119A342256018BF5960636808BF31603F
:104EDC0062514B60384604F10B0600F065F826F081
:104EEC000706231DF21AB6D09B1BA350B3E76268CA
:104EFC00A3420CBF32605A60ECE723466468B2E709
:104F0C0034467668B9E70C2338463B6000F04CF821
:104F1C00A1E72560DEE700BF680200202DE9F04123
:104F2C00804614460E4621B91146BDE8F041FFF704
:104F3C0081BF2AB9FFF716FF25462846BDE8F08148
:104F4C0000F038F88442074602D8B4EB500F12D860
:104F5C0021464046FFF76EFF05460028EDD0BC42C7
:104F6C002246314628BF3A46FFF7D4FE314640462A
:104F7C00FFF7F8FEE1E73546DFE7000038B5002320
:104F8C00054D044608462B60FCF70EFC431C02D171
:104F9C002B6803B1236038BD70020020014800F07B
:104FAC0011B800BF74020020014800F00CB800BF1B
:104FBC007402002051F8043C181F002BBCBF0B5886
:104FCC00C018704770477047F8B500BFF8BC08BCF4
:104FDC009E467047F8B500BFF8BC08BC9E467047AB
:104FEC00426F782049443A2025640000546F746164
:104FFC006C3A20256C64206B576800004C616E6520
:10500C00312D3E523A202530336420004C616E65C0
:10501C00312D3E473A202530336420004C616E65BB
:10502C00312D3E593A202530336420004C616E6599
:10503C00322D3E523A202530336420004C616E658F
:10504C00322D3E473A202530336420004C616E658A
:10505C00322D3E593A202530336420004D6F646563
:10506C0020202020203A2030303200004D6F646523
:10507C0020202020203A2030303300005761697402
:10508C002074696D653A20253033640002030405F1
:10509C00060708090A0B0C0D0E0F1010000000007B
:1050AC0000000000010203040607080900000000CC
:1050BC0001020304232D302B2000686C4C00656624
:1050CC00674546470030313233343536373839414D
:1050DC004243444546003031323334353637383963
:0850EC00616263646566000067
:0450F400310100087E
:0450F8000D0100089E
:1050FC0000080400000304000010020000D00000AF
:10510C000008020000C300000024F400090900009C
:10511C0010000000010000002C0000200000000026
:10512C000000000000000000000000000000000073
:10513C000000000000000000000000000000000063
:10514C000000000000000000000000000000000053
:10515C000000000000000000000000000000000043
:10516C000000000000000000000000000000000033
:0C517C0000000000000000000000000027
:0400000508001B11C3
:00000001FF
